:100000000C9443000C94A9100C94A9100C94A91002
:100010000C94A9100C94A9100C94A9100C944E0ED9
:100020000C94A9100C94A9100C94A9100C94A9106C
:100030000C94A9100C94A9100C94A9100C94A9105C
:100040000C94A9100C94A9100C94A9100C94A9104C
:100050000C94A9100C94A9100C94A9100C94A9103C
:100060000C94A9100C94A910010001028001020552
:10007000380021600538053E80053E054400259680
:100080000544055E800011241FBECFEFD8E0DEBF1F
:10009000CDBFE8E6F0E040E017C0B591A5913591FD
:1000A0002591059107FD0CC095918591EF01F92FE0
:1000B000E82F05900D92A217B307D9F7FE0104C0EF
:1000C0001D92A217B307E1F7E538F40731F70E9454
:0A00D000820F0C943210F894FFCF59
:1000DA00A5E2B0E0E3E7F0E00C941B0F9F8F8E8F50
:1000EA007F8B6E8B298FFB010190F081E02DFA87BF
:1000FA00E987FB0102811381248135813B8B2A8B9D
:10010A008085918599A388A326803780FA0180800B
:10011A009180A280B38020E030E0A901C501B4013A
:10012A000E94941087FF06C0B7FAB094B7F8B0944B
:10013A008DE204C0598552FF54C38BE2F1018083DA
:10014A002A893B89215031093C832B8341E050E0C5
:10015A00598B488B06C08A899B899C838B83198A11
:10016A00188AD501C401BF770097E0E8AE07EFE728
:10017A00BE0799F4F98D2F2FFF0F330B2154310944
:10018A0088899989820D931D2A31310518F468E20C
:10019A0075E019C06CE275E016C00197A048BF4728
:1001AA00A8F0498D242F440F330B21543109888933
:1001BA009989820D931D2A31310518F460E375E09F
:1001CA0002C064E375E00E944610FAC220E030E003
:1001DA00A901C501B4010E949410C12CD12C20E8B8
:1001EA00E22E2FE3F22E1A821982882309F48CC098
:1001FA008D829E82AF82B88620E030E040E251E4F0
:10020A00C701B6010E94A2102B013C01D501C4010D
:10021A0084199509A609B709B7FF07C0B095A09533
:10022A00909581959F4FAF4FBF4F0297A105B1059A
:10023A0044F489819A8101969A83898373016201C0
:10024A00DBCFA5019401C301B2010E94941087FD7E
:10025A00F0CF8D819E81AF81B8858C199D09AE0939
:10026A00BF090196A11DB11D0397A105B10508F4A7
:10027A0049C01E821D82A5019401C701B6010E94D0
:10028A00991018160CF040C0E981FA81E43DFE4F3E
:10029A00E4F44D815E81452BC1F420E030E040E872
:1002AA005AE5C501B4010E94A2104B015C0120E08D
:1002BA0030E040E85AE5C701B6010E94A2106B017E
:1002CA007C0181E090E09E838D8320E030E040E273
:1002DA0051E4C701B6010E949E106B017C01E981BD
:1002EA00FA813197FA83E983D501C4018C199D09F2
:1002FA00AE09BF090196A11DB11D0397A105B1055C
:10030A0008F0B9CF46015701F98D8F2FFF0F990BCE
:10031A000E944E10888F17FD03C01E830D8304C0F0
:10032A0026E030E03E832D83388D373639F4012BB1
:10033A0041F441E050E05E834D8303C0288D2F874E
:10034A0014C089819A818C3F9F4F0CF44FC28981D6
:10035A009A81ED81FE818E179F070CF047C2298191
:10036A003A8137FF46C236E63F874D815E814F5F4D
:10037A005F4F5E834D835F855636B9F489819A81D2
:10038A0097FF08C0C12CD12C90E8E92E9FE3F92EE3
:10039A001A821982988D973641F0ED81FE81298162
:1003AA003A81E20FF31FFE83ED831C2DDCA2EAA241
:1003BA000F2D8B869C86AD86BE861D8A1C8A8C89EB
:1003CA009D89ED81FE818E179F07DCF5212F3CA1C7
:1003DA004AA1502F6B857C858D859E850E949E1033
:1003EA000E94A0092B013C010E9487106A8FA30179
:1003FA009201612F7CA18AA1902F0E94A2102B85C5
:10040A003C854D855E850E9464109B01AC01505865
:10041A002B873C874D875E8720E030E040E251E43D
:10042A00612F7CA18AA1902F0E949E10162F7CA377
:10043A008AA3092F4C895D894F5F5F4F5D8B4C8B77
:10044A00BECF20E030E040EA50E4612F7CA18AA1CF
:10045A00902F0E94A2102B013C019B01AC016B85DD
:10046A007C858D859E850E94941087FD0DC0A30111
:10047A0092016B857C858D859E850E9494108111E1
:10048A0006C0FA8DF0FD03C0412C512C3201A501A2
:10049A009401C301B2010E9465104B015C0120E086
:1004AA0030E040E251E4C701B6010E94A2106B8716
:1004BA007C8B182F092F9B01482F592FC501B40196
:1004CA000E94991087FD14C029813A812F5F3F4FFE
:1004DA003A8329833F85363679F44D815E814F5FB1
:1004EA005F4F5E834D835B855CA38C898DA30BC0B4
:1004FA00CB86DC8A1E2D0F2D9F85953639F0EB852C
:10050A00ECA3FC89FDA3E980FA8006C02B852CA305
:10051A003C893DA3E12CF12C48885988C12CD12C67
:10052A001D8A1C8A1C861B8649855A854071552757
:10053A005BA34AA32B853C854D815E812417350731
:10054A0034F08C899D89892B09F494C09FC03201AB
:10055A00EE89FF898085918505974816590688F79F
:10056A002CA13DA1412F502FC501B4010E949E101C
:10057A000E94A0096A8F7B8F8C8F9D8F0E948710A3
:10058A006A30710514F069E070E08AA19BA1892B99
:10059A0069F46115710551F4988D973639F4F7FEAF
:1005AA0005C03601EFEF6E1A7E0A38C02C893D89E4
:1005BA00232B99F4F7FE11C03FEF431A530AF101B6
:1005CA00E60DF71D4EE240838B819C8101979C8347
:1005DA008B83E1E0F0E0FD8BEC8BF101E40DF51D7E
:1005EA0036016114710431F020E3219331E0631A7A
:1005FA007108F7CFC601840D951D2B813C812C19FA
:10060A003D092C014FEF441A540AF101E80FF91F72
:10061A00605D6083C90101979C838B832A8D3B8D22
:10062A004C8D5D8D6CA17DA1812F902F0E94A2100F
:10063A00A50194010E9464104B015C01B7FAB094C1
:10064A00B7F8B09420E030E040E251E46CA17DA11B
:10065A00812F902F0E949E106CA37DA3182F092F23
:10066A0091E0E91AF108EB85FC853196FC87EB8766
:10067A00630160CFF985F4FF09C0F101E40DF51DAE
:10068A008EE2808392012F5F3F4F2901A101440D21
:10069A00551D5E834D83FA011082FF85F53609F0F8
:1006AA0063C0E8A1F9A1E20DF31D319710822981F7
:1006BA003A8137FF08C03195219531093A83298358
:1006CA0001E010E002C000E010E0E8A1F9A13197D2
:1006DA00E20DF31D22E030E08AE0E82EF12CCF0192
:1006EA008219930949815A81452B91F089819A810E
:1006FA00B7010E94AC0F805D829369837A8321508F
:10070A0031094B815C81415051095C834B83E7CFAE
:10071A00121613065CF3FC013197E20DF31D012B4F
:10072A0011F42BE201C02DE220830297B101680F78
:10073A00791F598D252F550F330B215431092A3131
:10074A00310510F025E601C025E4FB0120832B8149
:10075A003C81225031093C832B834816590624F4E4
:10076A008D819E810E944610398531FF29C030FD56
:10077A0027C04B815C811416150614F5C1010E942D
:10078A001710820D931D9C01221933094889598932
:10079A00241735074CF0FC012081EB81FC81E80F1E
:1007AA00F91F20830197EFCF4B815C8160E370E0F2
:1007BA0088899989820D931D0E943D101B8A1A8A85
:1007CA00C1010E94171009851A852A893B89AC0143
:1007DA00B1018E8D9F8D0E94B80DA596E2E10C9411
:1007EA00370F598553FFB7CC80E2A8CCF5E6FF87CF
:0807FA00DCCD36E63F87D9CDC6
:10080200AEE0B0E0E7E0F4E00C941E0F4C016B01A7
:100812001A8219828FEF9FEF9C838B831E821D8227
:1008220058874F833A872987A12CB12CD6016D9026
:100832007C90F301EA0DFB1D808181110FC0D6016E
:10084200ED93FC938081853209F0D3C13F01BFEF64
:100852006B1A7B0AF6017182608219C0853279F3C4
:10086200B401082E000C990B0E94800C4FEFA41AC1
:10087200B40ADCCF8C32ACF08D32F9F489819A81E2
:1008820081609A8389833196D601ED93FC93D601D8
:10089200ED91FC9180818B3269F789819A81846024
:1008A200F0CF803221F489819A818860EACF833245
:1008B20051F489819A818061E4CF803321F4898166
:1008C2009A818260DECFB701C6010E94200E9E830C
:1008D2008D8397FF0BC029813A81B1E02B273A83A0
:1008E20029839195819591099E838D8389819A812E
:1008F20080FF03C08D7F9A838983D601ED91FC919D
:10090200119780818E3249F43196ED93FC93B701B1
:10091200C6010E94200E9C838B83C6010E94BE0EDC
:10092200582ED601ED91FC918081082E000C990B76
:100932000E944E10893609F443C084F4833609F4C8
:1009420002C134F4853209F427C18136E1F030C1A5
:100952008436B1F188360CF4D9C02AC1803709F443
:100962009AC03CF48E3609F4BCC08F3609F461C0DB
:100972001FC1853709F440C0883709F476C0833730
:1009820009F016C1F3C0652D70E0A701CE010B96E8
:100992000E94DE0E892B09F426C1D601ED91FC914D
:1009A2001197CF0101968D939C932081AE01455FF3
:1009B2005F4FBE016F5F7F4FC4010E94000010C1F4
:1009C200652D70E0970141E050E0CE010B960E9448
:1009D2000000892B09F407C1F601808191810196FB
:1009E20091838083AE01455F5F4FBE016F5F7F4F92
:1009F200C4010E940000F4C0652D70E0970140E040
:100A020050E0CE010B960E940000892B09F4EBC046
:100A1200D6018D919C91119701968D939C93AE0175
:100A2200455F5F4FBE016F5F7F4FC4010E940000B0
:100A3200D7C0652D70E0970140E050E0CE010B96E3
:100A42000E940000892B09F4CEC0F60180819181B9
:100A5200019691838083AE01455F5F4FBE016F5F58
:100A62007F4FC4010E940000BBC0652D70E097015A
:100A720040E050E0CE010B960E940000892B09F461
:100A8200B2C0D601ED91FC911197CF0101968D93E1
:100A92009C9320811CC0970140E050E060EF70E021
:100AA200CE010B960E940000892B09F49CC0F6012E
:100AB200808191810196918380838B859C85892B8E
:100AC20029F420E030E04EE355E084C028E7AE018F
:100AD200455F5F4FBE016F5F7F4FC4010E94000000
:100AE2007FC0A501400F511F652D70E09701CE0117
:100AF2000B960E940000892B09F475C0D6018D91D6
:100B02009C91119701968D939C9373C0652D70E013
:100B1200A701CE010B960E94DE0E892B09F463C059
:100B2200D601ED91FC911197CF0101968D939C9383
:100B32002081AE01455F5F4FBE016F5F7F4FC401F1
:100B42000E946D004DC0B0E85B124DC0F60180817D
:100B52009181019691838083D701ED91FC91119748
:100B6200CF0102968D939C93808120C0B0E85B12E6
:100B72003AC0F60180819181019691838083D701E9
:100B8200ED91FC911197CF0102968D939C93408138
:100B9200518120E030E01EC0B0E85B1224C0F601B3
:100BA200208131812F5F3F4F318320838B870DC09E
:100BB20085E28B87D6016D927C921A8219821E82FF
:100BC2001D828FEF9FEF9C838B8321E030E0AE018B
:100BD200455F5F4FBE016F5F7F4FC4010E940000FF
:100BE2008A0D9B1D07C0F601808191810196918338
:0C0BF2008083C5012E96EFE00C943A0FB2
:100BFE008F929F92AF92BF92CF92DF92EF92FF921F
:100C0E006091540570915505809156059091570548
:100C1E00209158053091590540915A0550915B0528
:100C2E000E949E106B017C0120E030E040EA5FE301
:100C3E000E94991018160CF041C080915D0581112B
:100C4E0004C080915C05882341F0109244051092F7
:100C5E004505109246051092470510925D051092BB
:100C6E005C05609158057091590580915A059091D7
:100C7E005B052091540530915505409156055091D4
:100C8E005705C0904405D0904505E0904605F0907C
:100C9E0047050E949E10A70196010E946510609361
:100CAE0048057093490580934A0590934B0585B18D
:100CBE008F7C85B98BB183608BB9EBC02DEC3CEC8E
:100CCE004CE45FE3C701B6010E94991018160CF0B0
:100CDE0088C080915D05811104C080915C058111F1
:100CEE0008C01092440510924505109246051092C8
:100CFE00470510925D0581E080935C056091440587
:100D0E007091450580914605909147052DEC3CEC80
:100D1E004CE45EE30E949910181664F48DEC9CEC82
:100D2E00ACE4BEE38093440590934505A09346053D
:100D3E00B093470560914405709145058091460535
:100D4E00909147052DEC3CEC4CE45EEB0E94941028
:100D5E00882364F48DEC9CECACE4BEEB80934405EC
:100D6E0090934505A0934605B0934705809058058E
:100D7E0090905905A0905A05B0905B05609158056A
:100D8E007091590580915A0590915B0520915405FB
:100D9E00309155054091560550915705C090440528
:100DAE00D0904505E0904605F09047050E946510ED
:100DBE009B01AC01C501B4010E949E10A7019601D2
:100DCE000E946510609348057093490580934A050B
:100DDE0090934B0585B1806385B98BB183608BB9D8
:100DEE0058C02DEC3CEC4CE45FE3C701B6010E9409
:100DFE00941018160CF44DC080915D05882321F0D7
:100E0E0080915C05811108C0109244051092450531
:100E1E00109246051092470581E080935D05809300
:100E2E005C05609158057091590580915A05909115
:100E3E005B05209154053091550540915605509112
:100E4E0057058090580590905905A0905A05B0907E
:100E5E005B05C0904405D0904505E0904605F090A6
:100E6E0047050E946410A50194010E949E10A701DF
:100E7E0096010E9465106093480570934905809312
:100E8E004A0590934B0585B1806385B98BB18C7FF4
:100E9E008BB9609148057091490580914A059091F2
:100EAE004B052DEC3CEC4CE45FE30E9499101816B8
:100EBE0064F48DEC9CECACE4BFE380934805909316
:100ECE004905A0934A05B0934B0560914805709172
:100EDE00490580914A0590914B052DEC3CEC4CE474
:100EEE005EE30E949410882364F48DEC9CECACE4D9
:100EFE00BEE38093480590934905A0934A05B093AD
:100F0E004B05609148057091490580914A05909175
:100F1E004B0520E030EE47EC54E40E94A2100E94F4
:100F2E00F10DE8E8F0E07183608380819181909308
:100F3E008B0080938A00FF90EF90DF90CF90BF9050
:080F4E00AF909F908F90089571
:100F56002F923F924F925F926F927F928F929F92C3
:100F6600AF92BF92CF92DF92EF92FF920F931F93B1
:100F7600CF93DF93CDB7DEB72A970FB6F894DEBFCF
:100F86000FBECDBF80914C0590914D05A0914E05A9
:100F9600B0914F0560914C0570914D0580914E05BD
:100FA60090914F0520E030E040E85FE30E94991001
:100FB60088230CF4A5C00F2EFDE44F2EF6EF5F2E0E
:100FC600FFEA6F2EFDEB7F2EF02DA4C029843A8414
:100FD600D101CD90DD90ED90FC9020914C053091A3
:100FE6004D0540914E0550914F05C701B6010E942F
:100FF600941018160CF45EC0F10180849184A284CA
:10100600B38420914C0530914D0540914E05509189
:101016004F05C501B4010E94991088230CF44AC0FB
:10102600D10114964D905D906D907C9017978091AC
:101036004C0590914D05A0914E05B0914F058983C1
:101046009A83AB83BC83A3019201D1011C966D9157
:101056007D918D919C911F970E9464106D837E8374
:101066008F839887A701960169817A818B819C81FC
:101076000E9464109B01AC016D817E818F819885F1
:101086000E94A21069837A838B839C83A7019601B1
:10109600C501B4010E9464109B01AC0169817A818B
:1010A6008B819C810E949E10A30192010E94651073
:1010B6002B013C01E985FA853896FA87E987E0171E
:1010C600F10709F083CFC0904405D0904505E09024
:1010D6004605F09047052DEC3CEC4CEC5DE3C30176
:1010E600B2010E94A210A70196010E9465106093AA
:1010F600440570934505809346059093470511C0B6
:101106000F2EFDE44F2EF6EF5F2EFFEA6F2EFDE366
:101116007F2EF02D82E091E09A8789870AEF14E00E
:1011260055CF2A960FB6F894DEBF0FBECDBFDF911E
:10113600CF911F910F91FF90EF90DF90CF90BF90CE
:10114600AF909F908F907F906F905F904F903F9061
:041156002F90089539
:10115A00EF92FF920F931F93CF93DF9300D000D0AB
:10116A0000D0CDB7DEB71A821982FE01339684E029
:10117A00DF011D928A95E9F78091580590915905EA
:10118A00A0915A05B0915B05BF93AF939F938F933C
:10119A000F2EF8E1EF2EF5E0FF2EF02DFF92EF92E1
:1011AA008E010F5F1F4F1F930F930E94D40F60E0B1
:1011BA0080E80E947F0DC8010E94F70F80915405B4
:1011CA0090915505A0915605B0915705BF93AF93DD
:1011DA009F938F93FF92EF921F930F930E94D40FC6
:1011EA0060E085E80E947F0DC8010E94F70F60E069
:1011FA008AE80E947F0D80915C050FB6F894DEBFE5
:10120A000FBECDBF811105C08DE195E00E94F70F99
:10121A000DC080915D05882329F08FE195E00E9439
:10122A00F70F04C081E295E00E94F70F8091500504
:10123A0090915105A0915205B0915305BF93AF9378
:10124A009F938F930F2EF8E1EF2EF5E0FF2EF02DEE
:10125A00FF92EF928E010F5F1F4F1F930F930E9411
:10126A00D40F60E08CE80E947F0DC8010E94F70F3E
:10127A0080914C0590914D05A0914E05B0914F0576
:10128A00BF93AF939F938F93FF92EF921F930F9306
:10129A000E94D40F60E080EC0E947F0DC8010E947A
:1012AA00F70F8091440590914505A0914605B091AC
:1012BA004705BF93AF939F938F930F2EF3E2EF2EC1
:1012CA00F5E0FF2EF02DFF92EF921F930F930E94ED
:1012DA00D40F60E085EC0E947F0DC8010E94F70FD1
:1012EA008091480590914905A0914A05B0914B0516
:1012FA00BF93AF939F938F93FF92EF921F930F9396
:10130A000E94D40F0FB6F894DEBF0FBECDBF60E0C7
:10131A008BEC0E947F0DC8010E94F70F26960FB62C
:10132A00F894DEBF0FBECDBFDF91CF911F910F9111
:06133A00FF90EF90089502
:101340008F929F92AF92BF92CF92DF92EF92FF92D5
:101350000F931F938B019C0157E1369527951795A5
:1013600007955A95D1F71127A8014F5751094731D1
:1013700051050CF045C057FD2DC00FEF1FEF2FE7B3
:1013800030E004C035952795179507954A95D2F713
:101390004801590186229722A822B92289288A2841
:1013A0008B2871F197FF07C0DC01CB01800F911FE3
:1013B000A21FB31F02C0DC01CB0100951095209540
:1013C000309580239123A223B323482F392F2A2F2E
:1013D0005B2F1AC097FF0FC08B019C01000F111FDC
:1013E000221F331F012B022B032B51F040E030E072
:1013F00020E85FEB09C040E030E020E050E004C0AE
:10140000462F372F282F592F642F732F822F952F78
:101410001F910F91FF90EF90DF90CF90BF90AF9012
:061420009F908F900895DB
:10142600CF93DF9380E00E94980FC8E3D5E09983BD
:10143600888381E00E94980F9B838A8382E00E94C2
:10144600980F9D838C838881998121E3289FB00121
:10145600299F700D112480E090E00E94CC0C20E0C2
:1014660030EC4FE754E40E949E1020E030E040EC60
:1014760050E40E9465106093580570935905809357
:101486005A0590935B058A819B812CE0289FB001C9
:10149600299F700D112480E090E00E94CC0C20E082
:1014A60030EC4FE754E40E949E1020E030E040E923
:1014B60051E40E946510609354057093550580931E
:1014C6005605909357058C819D8127E3289FB0018F
:1014D600299F700D112480E090E00E94CC0C20E042
:1014E60030EC4FE754E40E949E10609350057093D1
:1014F60051058093520590935305DF91CF9108953E
:1015060010C00E94721058F00E946B1040F029F42F
:101516005F3F29F00C948E1051110C947A100C94A4
:10152600A6100E949C0E68F39923B1F3552391F3FC
:10153600951B550BBB27AA2762177307840738F03C
:101546009F5F5F4F220F331F441FAA1FA9F335D099
:101556000E2E3AF0E0E832D091505040E695001C4D
:10156600CAF72BD0FE2F29D0660F771F881FBB1F07
:10157600261737074807AB07B0E809F0BB0B802DE5
:10158600BF01FF2793585F4F3AF09E3F510578F011
:101596000C948E100C947A105F3FE4F3983ED4F3CB
:1015A600869577956795B795F7959F5FC9F7880FE5
:1015B600911D9695879597F90895E1E0660F771F37
:1015C600881FBB1F621773078407BA0720F0621BC8
:0E15D600730B840BBA0BEE1F88F7E095089597
:1015E4000FC00E946B1038F00E94721020F09523F7
:1015F40011F00C948E100C94A61011240C947A10F3
:101604000E949C0E70F3959FC1F3950F50E0551FF7
:10161400629FF001729FBB27F00DB11D639FAA2743
:10162400F00DB11DAA1F649F6627B00DA11D661F92
:10163400829F2227B00DA11D621F739FB00DA11DB3
:10164400621F839FA00D611D221F749F3327A00D6D
:10165400611D231F849F600D211D822F762F6A2F09
:1016640011249F5750409AF0F1F088234AF0EE0F6E
:10167400FF1FBB1F661F771F881F91505040A9F79B
:101684009E3F510580F00C948E100C947A105F3FAD
:10169400E4F3983ED4F3869577956795B795F795D7
:1016A400E7959F5FC1F7FE2B880F911D969587954F
:0416B40097F9089505
:1016B80011C00E946B1038F00E94721020F039F4AB
:1016C8009F3F19F426F40C94A6100EF4E095E7FB5E
:1016D8000C948E10E92F0E949C0E58F3BA176207DB
:1016E80073078407950720F079F4A6F50C94791010
:1016F8000EF4E0950B2EBA2FA02D0B01B901900125
:101708000C01CA01A0011124FF27591B99F0593F68
:1017180050F4503E68F11A16F040A22F232F342FB0
:101728004427585FF3CF469537952795A795F040FE
:101738005395C9F77EF41F16BA0B620B730B840B13
:10174800BAF09150A1F0FF0FBB1F661F771F881FCB
:10175800C2F70EC0BA0F621F731F841F48F4879523
:1017680077956795B795F7959E3F08F0B0CF939515
:0E177800880F08F09927EE0F97958795089532
:101786005B985A988FE39CE90197F1F700C0000037
:101796008BB18F7080638BB995E09A95F1F7000055
:1017A6005A9A85E08A95F1F700005A9890EF9A9533
:1017B600F1F78FE19EE40197F1F700C0000095E094
:1017C6009A95F1F700005A9A85E08A95F1F700009C
:1017D6005A9890EF9A95F1F78FE193E00197F1F718
:1017E60000C0000095E09A95F1F700005A9A85E04E
:1017F6008A95F1F700005A9890EF9A95F1F78BB118
:101806008F7080628BB985E08A95F1F700005A9A4D
:1018160095E09A95F1F700005A9880EF8A95F1F7CE
:1018260060E088E20E947F0D60E088E00E947F0D04
:1018360060E081E00E947F0D60E08CE00E947F0DF9
:0A18460060E080E80E947F0D089525
:101850004F925F926F927F928F929F92AF92BF92C0
:10186000CF92DF92EF92FF926091500570915105F7
:10187000809152059091530520915805309159055A
:1018800040915A0550915B0580905005909051050C
:10189000A0905205B09053054090580550905905BE
:1018A00060905A0570905B050E9464106B017C018A
:1018B000A3019201C501B4010E9464109F7720E04A
:1018C00030E040E85FE30E9465109B01AC01C70176
:1018D000B6010E949E1060934C0570934D05809355
:1018E0004E0590934F05FF90EF90DF90CF90BF9003
:1018F000AF909F908F907F906F905F904F900895E2
:101900000F931F93CF93DF93DB01109719F48FEFA1
:101910009FEF3DC02D913C91119730FF25C0169649
:101920004D915C91179714962D913C911597421704
:10193000530778F41296ED91FC91139780831296D9
:101940002D913C9113972F5F3F4F13963C932E930D
:10195000129716962D913C9117972F5F3F4F179630
:101960003C932E93169713C01C96ED91FC911D97F6
:10197000309769F2EB01092F182F0995892B39F659
:101980008E819F8101969F838E83812F902FDF917F
:08199000CF911F910F91089502
:10199800E89409C097FB3EF4909580957095619501
:1019A8007F4F8F4F9F4F9923A9F0F92F96E9BB27B7
:1019B8009395F695879577956795B795F111F8CF33
:1019C800FAF4BB0F11F460FF1BC06F5F7F4F8F4F9E
:1019D8009F4F16C0882311F096E911C0772321F094
:1019E8009EE8872F762F05C0662371F096E8862F2C
:1019F80070E060E02AF09A95660F771F881FDAF783
:0A1A0800880F9695879597F90895C9
:101A1200A2E8B0E0EFE0FDE00C94210F5C014A0186
:101A2200CF57DF4F79836883C158D040C12CD12C66
:101A3200CF57DF4FE881F981C158D0408081882398
:101A4200E9F07401860120E830E0AE014F5F5F4F9C
:101A5200BE016F577F4FC5010E9401048C0D9D1D71
:101A62008C159D054CF48FE490E0909301018093D6
:101A720000018FEF9FEF03C06C01DACFC601CE5792
:081A8200DF4FECE00C943D0F76
:101A8A00A0E1B0E0EBE4FDE00C94270FFB01BA0102
:101A9A00AE014F5F5F4F7A0140E1D7011D924A952F
:101AAA00E9F742E051E05A8349839C838B83F7FF2D
:101ABA0009C08FE490E090930101809300018FEFB9
:101ACA009FEF14C0A9018C013197FE83ED83C701F2
:101ADA000E946A0F4F8158852D813E814217530714
:101AEA0008F49A01F801E20FF31F10826096E6E00B
:041AFA000C94430FF6
:101AFE00611102C05B9801C05B9A9BB19F70282F49
:101B0E00207F922B9BB945E04A95F1F700005A9A37
:101B1E0095E09A95F1F700005A9840EF4A95F1F743
:101B2E002BB1922F9F7040E1849F90011124292B9D
:101B3E002BB995E09A95F1F700005A9A45E04A952F
:101B4E00F1F700005A9890EF9A95F1F7611108C0DD
:101B5E00843030F48FE39FE10197F1F700C000006D
:021B6E000895D8
:101B7000A0E0B0E0EEEBFDE00C94210F6C015B0106
:101B80007A01E901480181E08822992400FD03C01F
:101B90004217530750F0A701B501C6010E94FE0E7F
:101BA000EC16FD0610F0C70117C08E010E191F09B3
:101BB0000115110541F0B60180E290E00E94800C11
:101BC00001501109F5CF8114910429F4A701B50141
:101BD000C6010E94FE0ECE01CDB7DEB7ECE00C943C
:021BE0003D0FB7
:101BE2000E94A40E88F09F5798F0B92F9927B751F9
:101BF200B0F0E1F0660F771F881F991F1AF0BA95AF
:101C0200C9F714C0B13091F00E947910B1E0089583
:101C12000C947910672F782F8827B85F39F0B93F75
:101C2200CCF3869577956795B395D9F73EF4909561
:0E1C32008095709561957F4F8F4F9F4F08955D
:101C4000DC01ED91FC91119780818A3221F080E0D6
:101C500090E03AE00EC03196ED93FC93DB01ED91FC
:101C6000FC911197CF0102968D939C938081918175
:101C70000895ED91FC911197208120532A3068F44A
:101C8000389FA001399F500D1124CA01820F911D68
:0C1C900031961196FC93EE93ECCF089572
:101C9C001F920F920FB60F9211242F933F934F93D5
:101CAC005F936F937F938F939F93AF93BF93EF93B8
:101CBC00FF930E94130A0E94280C0E94AB070E94FB
:101CCC00FF05FF91EF91BF91AF919F918F917F9104
:101CDC006F915F914F913F912F910F900FBE0F908D
:041CEC001F90189598
:101CF000990F0008550FAA0BE0E8FEEF161617061D
:101D0000E807F907C0F012161306E407F50798F084
:101D1000621B730B840B950B39F40A2661F0232B9D
:101D2000242B252B21F408950A2609F4A140A69519
:081D30008FEF811D811D089554
:101D380057FD9058440F551F59F05F3F71F0479574
:101D4800880F97FB991F61F09F3F79F08795089559
:101D5800121613061406551FF2CF4695F1DF08C078
:101D6800161617061806991FF1CF86957105610595
:041D7800089408952E
:101D7C00CF93DF93EC0190E0E92FF0E0EE0FFF1F23
:101D8C00EE5FFA4F8081811102C081810EC0A88163
:101D9C00B9812C91821305C091811196B983A883C6
:101DAC0001C09F5F9B3040F3892FDF91CF91089545
:101DBC00FA0160387105CCF0623871051CF063389B
:101DCC00710599F4A081B1819D012C5F3F4F318346
:101DDC0020834D915D916D917C91FC0140835183E9
:101DEC006283738381E090E0089580E090E0089531
:101DFC00A0E0B0E0E4E0FFE00C94250F6C01EB01F7
:101E0C008A017B01E40EF51ECE15DF0541F08991A8
:101E1C00B601082E000C990B0E94800CF5CFC8015E
:0A1E2C00CDB7DEB7E8E00C94410FDB
:101E36002F923F924F925F926F927F928F929F92D4
:101E4600AF92BF92CF92DF92EF92FF920F931F93C2
:101E5600CF93DF93CDB7DEB7CA1BDB0B0FB6F89473
:081E6600DEBF0FBECDBF0994E1
:101E6E002A88398848885F846E847D848C849B841C
:101E7E00AA84B984C884DF80EE80FD800C811B812A
:101E8E00AA81B981CE0FD11D0FB6F894DEBF0FBE59
:061E9E00CDBFED01089527
:101EA40084B1866084B982EB8093800089E1809359
:101EB40081008FE396E090938700809386001092D0
:101EC40089001092880010928B0010928A00089565
:101ED400A2E0B0E0E0E7FFE00C94290F8C015A8304
:101EE4004983AE014F5F5F4F0E94090DF8012081C5
:101EF40024FF02C08FEF9FEF2296E4E00C94450F7D
:101F04000E9425100E9456100E945D100E94520FDC
:101F14000E94071078940E94130A0E94280C0E94C1
:0C1F2400AB070E94FF050E94AD08FDCF36
:101F3000ECE7F0E09081907F8F70892B8083EAE757
:101F4000F0E0808180648083808186FDFDCF809178
:081F50007800909179000895DA
:101F580097FB072E16F4009407D077FD09D00E944E
:101F6800C00F07FC05D03EF4909581959F4F0895CA
:081F7800709561957F4F0895FB
:101F8000AA1BBB1B51E107C0AA1FBB1FA617B7079F
:101F900010F0A61BB70B881F991F5A95A9F78095BB
:081FA0009095BC01CD010895EC
:101FA800A0E0B0E0EAEDFFE00C942B0FAE01475F34
:101FB8005F4F6F8178858D819E810E948010E2E05D
:041FC8000C94470F1F
:101FCC00092E0394000C11F4882352F0BB0F40F43B
:101FDC00BF2B11F460FF04C06F5F7F4F8F4F9F4F7B
:021FEC00089556
:101FEE00CF93DF93EC018881882339F0219661E04D
:101FFE000E947F0D89918111FACFDF91CF910895C3
:10200E00239A82E08093B00084E08093B10089EF40
:10201E008093B300E0E7F0E08081826080830895D2
:10202E00FC01AF014F5F5F4F2081222311F0FA01B7
:0C203E00F8CF9F01281B390BC901089541
:10204A008AB18C608AB98AB1806F8AB90E94C30B3F
:0A205A0060E081E00E947F0D089510
:10206400EC010E94AE100E94AD10CE010E94AF1090
:06207400CE010E94AB103A
:10207A00FC01480F591FE417F50711F06193FBCFD4
:02208A000895B7
:10208C00FC01DB012D91BD0121932111FACF0895A3
:10209C009C01215431092A31310508F480620895DC
:0E20AC0080E480937C0087E880937A0008959A
:0E20BA0084B1806384B98AB183608AB90895C5
:0E20C8005058BB27AA270E945C0B0C94E60F11
:0E20D60000240A941616170618060906089527
:0E20E40000240A941216130614060506089529
:0E20F200E894BB2766277727CB0197F908955E
:0E2100009A01AB016FEF7FE70E94450D089535
:0E210E000E94F10D6894B1110C947A1008959E
:0C211C0097F99F6780E870E060E008958C
:0A2128000E94780E08F481E008958B
:0A2132000E94780E08F48FEF089564
:08213C000E94830A0C94E60FD7
:082144000E94F20A0C94E60F60
:06214C009FEF80EC0895F6
:042152000C940000E9
:042156000E946B0078
:02215A000895E6
:02215C000895E4
:02215E000895E2
:10216000000080BF4DF6AF3DF0F77BBF4DF6AF3DB1
:10217000E1EF77BF4DF6AF3DD1E773BF4DF6AF3D11
:10218000C2DF6FBF4DF6AF3DB2D76BBF4DF6AF3D6F
:10219000A2CF67BF4DF6AF3D93C763BF4DF6AF3DCE
:1021A00083BF5FBF4DF6AF3D74B75BBF4DF6AF3D2C
:1021B00064AF57BF4DF6AF3D54A753BF4DF6AF3D8B
:1021C000459F4FBF4DF6AF3D35974BBF4DF6AF3DE9
:1021D000268F47BF4DF6AF3D168743BF4DF6AF3D47
:1021E000F67E3FBF4DF6AF3DE6763BBF4DF6AF3DC9
:1021F000D66E37BF4DF6AF3DC76633BF4DF6AF3D28
:10220000B75E2FBF4DF6AF3DA8562BBF4DF6AF3D85
:10221000984E27BF4DF6AF3D884623BF4DF6AF3DE4
:10222000793E1FBF4DF6AF3D69361BBF4DF6AF3D42
:102230005A2E17BF4DF6AF3D4A2613BF4DF6AF3DA0
:102240003A1E0FBF4DF6AF3D2B160BBF4DF6AF3DFF
:102250001B0E07BF4DF6AF3D0C0603BF4DF6AF3D5D
:10226000F8FBFDBE4DF6AF3DD9EBF5BE4DF6AF3DEB
:10227000BADBEDBE4DF6AF3D9BCBE5BE4DF6AF3DB7
:102280007BBBDDBE4DF6AF3D5CABD5BED559AD3D9C
:102290003D9BCDBE0C79A43D1E8BC5BE4CE3973D46
:1022A000FF7ABDBE535E8B3DDF6AB5BEF7397E3D1A
:1022B000C05AADBEDE5A663DA14AA5BEFF424F3DA3
:1022C000823A9DBE0116393D632A95BE9FE3233DA8
:1022D000431A8DBE6FB80F3D240A85BE9CA4F93CFD
:1022E000C7F379BE630AD63C89D369BE3ECEB43CFF
:1022F0004AB359BE6B61963C0C9349BECA1A753CF1
:10230000CD7239BEF8FB453C8F5229BE713C1F3C53
:10231000513219BE0A2C003C121209BE8670CC3B09
:10232000A8E3F1BDBD1AA03B2BA3D1BD9EEB7B3B27
:10233000AE62B1BDB0E33F3B322291BDA46C113B14
:1023400069C361BDE202D03A704221BD73F38D3A98
:10235000ED82C1BC4CA51F3AF30101BC03275B39D8
:10236000F301013C03275BB9ED82C13C4CA51FBAC8
:102370007042213D73F38DBA69C3613DE202D0BA68
:102380003222913DA46C11BBAE62B13DB0E33FBBC4
:102390002BA3D13D9EEB7BBBA8E3F13DBD1AA0BBB7
:1023A0001212093E8670CCBB5132193E0A2C00BC79
:1023B0008F52293E713C1FBCCD72393EF8FB45BCA3
:1023C0000C93493ECA1A75BC4AB3593E6B6196BC20
:1023D00089D3693E3ECEB4BCC7F3793E630AD6BC0E
:1023E000240A853E9CA4F9BC431A8D3E6FB80FBDEC
:1023F000632A953E9FE323BD823A9D3E011639BD77
:10240000A14AA53EFF424FBDC05AAD3EDE5A66BD51
:10241000DF6AB53EF7397EBDFF7ABD3E535E8BBDA8
:102420001E8BC53E4CE397BD3D9BCD3E0C79A4BDB4
:102430005CABD53ED559ADBD7BBBDD3E4DF6AFBDEA
:102440009BCBE53E4DF6AFBDBADBED3E4DF6AFBDE5
:10245000D9EBF53E4DF6AFBDF8FBFD3E4DF6AFBDF9
:102460000C06033F4DF6AFBD1B0E073F4DF6AFBD4B
:102470002B160B3F4DF6AFBD3A1E0F3F4DF6AFBDCD
:102480004A26133F4DF6AFBD5A2E173F4DF6AFBD4E
:1024900069361B3F4DF6AFBD793E1F3F4DF6AFBDD0
:1024A0008846233F4DF6AFBD984E273F4DF6AFBD52
:1024B000A8562B3F4DF6AFBDB75E2F3F4DF6AFBDD3
:1024C000C766333F4DF6AFBDD66E373F4DF6AFBD55
:1024D000E6763B3F4DF6AFBDF67E3F3F4DF6AFBDD6
:1024E0001687433F4DF6AFBD268F473F4DF6AFBD34
:1024F00035974B3F4DF6AFBD459F4F3F4DF6AFBDB6
:1025000054A7533F4DF6AFBD64AF573F4DF6AFBD37
:1025100074B75B3F4DF6AFBD83BF5F3F4DF6AFBDB8
:1025200093C7633F4DF6AFBDA2CF673F4DF6AFBD3A
:10253000B2D76B3F4DF6AFBDC2DF6F3F4DF6AFBDBB
:10254000D1E7733F4DF6AFBDE1EF773F4DF6AFBD3D
:10255000F0F77B3F4DF6AFBD0000803F4DF6AFBDBD
:1025600068076C094C836A9074A07AC00080688800
:0625700000846C82008172
:10257600252E3166002D002B002A00252E326600FE
:10258600494E4600696E66004E414E006E616E0011
:06259600286E696C2900AB
:00000001FF
